:100000000C9453000C947B000C947B000C947B00AC
:100010000C947B000C947B000C947B000C947B0074
:100020000C947B000C947B000C947B000C947B0064
:100030000C947B000C947B000C947B000C947B0054
:100040000C94E2010C947B000C9452020C942C0250
:100050000C947B000C947B000C947B000C947B0034
:100060000C947B000C947B0000000000250028000D
:100070002B0000000000240027002A0004040404D0
:100080000404040402020202020203030303030342
:10009000010204081020408001020408102001021F
:1000A00004081020180411241FBECFEFD8E0DEBFD3
:1000B000CDBF11E0A0E0B1E0ECE7FCE002C00590AC
:1000C0000D92A434B107D9F721E0A4E4B1E001C056
:1000D0001D92A03FB207E1F710E0C3E5D0E004C0F5
:1000E0002197FE010E943106C235D107C9F70E944F
:1000F00084020C943C060C940000CF92DF92EF92A5
:10010000FF920F931F93CF93DF936C017A018B01C2
:10011000C0E0D0E0CE15DF0581F0D8016D918D01F2
:10012000D601ED91FC910190F081E02DC601099579
:10013000892B11F02196EECF7E01C701DF91CF917F
:100140001F910F91FF90EF90DF90CF900895089549
:1001500080E090E00895FC01538D448D252F30E020
:10016000842F90E0821B930B541710F0CF960895C4
:1001700001970895FC01918D828D981761F0828D11
:10018000DF01A80FB11D5D968C91928D9F5F9F73CB
:10019000928F90E008958FEF9FEF0895FC01918D6D
:1001A000828D981731F0828DE80FF11D858D90E0DA
:1001B00008958FEF9FEF0895FC01918D228D892F77
:1001C00090E0805C9F4F821B91098F73992708955F
:1001D00083E591E00E94DC0021E0892B09F420E016
:1001E000822F0895FC01848DDF01A80FB11DA35A51
:1001F000BF4F2C91848D90E001968F739927848F47
:10020000A689B7892C93A089B1898C918370806469
:100210008C93938D848D981306C00288F389E02D0A
:1002200080818F7D80830895EF92FF920F931F93BB
:10023000CF93DF93EC0181E0888F9B8D8C8D981399
:1002400005C0E889F989808185FD26C0F62E0B8DD1
:1002500010E00F5F1F4F0F731127E02E8C8DE812F7
:100260000CC00FB607FCFACFE889F989808185FFB9
:10027000F5CFCE010E94F200F1CF8B8DFE01E80F89
:10028000F11DE35AFF4FF0829FB7F8940B8FEA8974
:10029000FB89808180620AC09FB7F894EE89FF894C
:1002A0006083E889F98980818370806480839FBF3F
:1002B00081E090E0DF91CF911F910F91FF90EF903F
:1002C0000895CF93DF93EC01888D8823C9F0EA89E4
:1002D000FB89808185FD05C0A889B9898C9186FD3F
:1002E0000FC00FB607FCF5CF808185FFF2CFA8893C
:1002F000B9898C9185FFEDCFCE010E94F200E7CF46
:10030000DF91CF91089580E090E0892B29F00E9441
:10031000E80081110C9400000895009769F0FC0139
:1003200001900020E9F73197AF01481B590BBC0140
:1003300083E591E00C947D0080E090E008958F9239
:100340009F92AF92BF920F931F93CF93DF93CDB73E
:10035000DEB7A1970FB6F894DEBF0FBECDBF19A2CE
:10036000423008F44AE08E010F5D1F4F842E912C1D
:10037000A12CB12CA50194010E940F06E62FB90112
:10038000CA0101501109EA3014F4E05D01C0E95CD2
:10039000D801EC93232B242B252B61F7C8010E9455
:1003A0008D01A1960FB6F894DEBF0FBECDBFDF91D1
:1003B000CF911F910F91BF90AF909F908F90089514
:1003C0000E9437061F920F920FB60F9211242F939F
:1003D0003F938F939F93AF93BF9380914F019091E1
:1003E0005001A0915101B091520130914E0123E092
:1003F000230F2D3720F40196A11DB11D05C026E85D
:10040000230F0296A11DB11D20934E0180934F0131
:1004100090935001A0935101B093520180914A01F1
:1004200090914B01A0914C01B0914D010196A11DFD
:10043000B11D80934A0190934B01A0934C01B0935E
:100440004D01BF91AF919F918F913F912F910F904F
:100450000FBE0F901F9018951F920F920FB60F921C
:1004600011242F933F934F935F936F937F938F93B9
:100470009F93AF93BF93EF93FF9383E591E00E9427
:10048000F200FF91EF91BF91AF919F918F917F917A
:100490006F915F914F913F912F910F900FBE0F90F1
:1004A0001F9018951F920F920FB60F9211242F9341
:1004B0008F939F93EF93FF93E0916301F091640119
:1004C0008081E0916901F0916A0182FD12C0908102
:1004D00080916C018F5F8F7320916D01821751F0B5
:1004E000E0916C01F0E0ED5AFE4F958F80936C0126
:1004F00001C08081FF91EF919F918F912F910F907B
:100500000FBE0F901F901895789484B5826084BDBB
:1005100084B5816084BD85B5826085BD85B5816007
:1005200085BD80916E00816080936E001092810085
:100530008091810082608093810080918100816040
:100540008093810080918000816080938000809101
:10055000B10084608093B1008091B000816080938D
:10056000B00080917A00846080937A0080917A0054
:10057000826080937A0080917A00816080937A0013
:1005800080917A00806880937A001092C100EEE931
:10059000F0E02491EAE8F0E084918823C1F090E053
:1005A000880F991FFC01EE58FF4FC591D491FC01B3
:1005B000E859FF4FA591B4919FB7F8948881E22F35
:1005C000E0958E2388838C91E823EC939FBFE09184
:1005D0006301F091640182E08083E0915F01F0911A
:1005E00060011082E0916101F09162018FEC8083E3
:1005F00010926B01E0916701F091680186E08083C1
:10060000E0916501F0916601808180618083E091D5
:100610006501F0916601808188608083E0916501C9
:10062000F0916601808180688083E0916501F0919E
:10063000660180818F7D8083C0E4C0937C008091BF
:100640007A00806480937A0080917A0086FDFCCFE6
:10065000609178008091790070E0782B7093490167
:1006600060934801072E000C880B990B0E94E80448
:1006700020E93EE34AE75EE30E949D056093440162
:1006800070934501809346019093470182E191E088
:100690000E948D01C0904801D09049010D2C000CA2
:1006A000EE08FF08F7FE0EC06DE283E591E00E94C0
:1006B000140166277727CB016C197D098E099F09E4
:1006C0004AE003C04AE0C701B6010E949F0185E2EB
:1006D00091E00E948D01C0904401D0904501E090CE
:1006E0004601F0904701A7019601C701B6010E949B
:1006F0000A06882319F085E391E01AC046015701E4
:10070000E894B7F82FEF3FEF4FE75FE7C501B4017B
:100710000E940A0681110FC02FEF3FEF4FE75FE7FE
:10072000C501B4010E94B20418162CF489E391E0CB
:100730000E948D0176C02FEF3FEF4FE75FE4C701C6
:10074000B6010E94980518161CF48DE391E0F0CFD5
:100750002FEF3FEF4FE75FECC701B6010E94B204F5
:1007600087FDF3CF20E030E0A901C701B6010E9468
:10077000B20487FF09C06DE283E591E00E94140195
:10078000F7FAF094F7F8F0942AE037ED43EA5BE3E8
:10079000C701B6010E9446044B015C010E94B704E8
:1007A0006B017C010E94E6049B01AC01C501B40110
:1007B0000E9445044B015C014AE0C701B6010E945A
:1007C0009F016EE283E591E00E94140120E030E099
:1007D00040E251E4C501B4010E949D054B015C015A
:1007E0000E94B7046B01E12CF12C4AE0C701B6016D
:1007F0000E949F01C701B6010E94E6049B01AC0163
:10080000C501B4010E94450420E030E040E251E41B
:100810000E949D050E94B70480E090E04AE00E949B
:100820009F0181E491E00E948D010E94830105CF28
:10083000E3E5F1E01382128288EE93E0A0E0B0E0FD
:1008400084839583A683B78384E091E0918380833A
:1008500085EC90E09587848784EC90E09787868785
:1008600080EC90E0918B808B81EC90E0938B828B7D
:1008700082EC90E0958B848B86EC90E0978B868B56
:10088000118E128E138E148E08955058BB27AA27EE
:100890000E945D040C945E050E94500538F00E9491
:1008A000570520F039F49F3F19F426F40C944D05B8
:1008B0000EF4E095E7FB0C944705E92F0E946F05C5
:1008C00058F3BA17620773078407950720F079F485
:1008D000A6F50C9491050EF4E0950B2EBA2FA02DE1
:1008E0000B01B90190010C01CA01A0011124FF27DD
:1008F000591B99F0593F50F4503E68F11A16F040D8
:10090000A22F232F342F4427585FF3CF46953795D6
:100910002795A795F0405395C9F77EF41F16BA0B9B
:10092000620B730B840BBAF09150A1F0FF0FBB1F49
:10093000661F771F881FC2F70EC0BA0F621F731F92
:10094000841F48F4879577956795B795F7959E3FEF
:1009500008F0B0CF9395880F08F09927EE0F979580
:10096000879508950E94230508F481E008950E9468
:10097000770588F09F5798F0B92F9927B751B0F0B5
:10098000E1F0660F771F881F991F1AF0BA95C9F713
:1009900014C0B13091F00E949105B1E008950C941B
:1009A0009105672F782F8827B85F39F0B93FCCF3CE
:1009B000869577956795B395D9F73EF49095809590
:1009C000709561957F4F8F4F9F4F0895E89409C0B0
:1009D00097FB3EF490958095709561957F4F8F4F72
:1009E0009F4F9923A9F0F92F96E9BB279395F69588
:1009F000879577956795B795F111F8CFFAF4BB0F06
:100A000011F460FF1BC06F5F7F4F8F4F9F4F16C069
:100A1000882311F096E911C0772321F09EE8872FF3
:100A2000762F05C0662371F096E8862F70E060E0AF
:100A30002AF09A95660F771F881FDAF7880F969528
:100A4000879597F90895990F0008550FAA0BE0E8CC
:100A5000FEEF16161706E807F907C0F01216130680
:100A6000E407F50798F0621B730B840B950B39F4C0
:100A70000A2661F0232B242B252B21F408950A2626
:100A800009F4A140A6958FEF811D811D089597F966
:100A90009F6780E870E060E008959FEF80EC089524
:100AA00000240A941616170618060906089500244D
:100AB0000A9412161306140605060895092E0394C7
:100AC000000C11F4882352F0BB0F40F4BF2B11F43B
:100AD00060FF04C06F5F7F4F8F4F9F4F089557FD9A
:100AE0009058440F551F59F05F3F71F04795880F9C
:100AF00097FB991F61F09F3F79F087950895121633
:100B000013061406551FF2CF4695F1DF08C01616DE
:100B100017061806991FF1CF86957105610508948F
:100B20000895E894BB2766277727CB0197F90895A6
:100B30000E94230508F48FEF08950E94B0050C94DD
:100B40005E050E94500538F00E94570520F095235D
:100B500011F00C9447050C944D0511240C9492054A
:100B60000E946F0570F3959FC1F3950F50E0551FDC
:100B7000629FF001729FBB27F00DB11D639FAA27F2
:100B8000F00DB11DAA1F649F6627B00DA11D661F41
:100B9000829F2227B00DA11D621F739FB00DA11D62
:100BA000621F839FA00D611D221F749F3327A00D1C
:100BB000611D231F849F600D211D822F762F6A2FB8
:100BC00011249F5750409AF0F1F088234AF0EE0F1D
:100BD000FF1FBB1F661F771F881F91505040A9F74A
:100BE0009E3F510580F00C9447050C9492055F3FA1
:100BF000E4F3983ED4F3869577956795B795F79586
:100C0000E7959F5FC1F7FE2B880F911D96958795FD
:100C100097F908950E942305880B990B0895A1E286
:100C20001A2EAA1BBB1BFD010DC0AA1FBB1FEE1F66
:100C3000FF1FA217B307E407F50720F0A21BB30BB1
:100C4000E40BF50B661F771F881F991F1A9469F72D
:100C500060957095809590959B01AC01BD01CF0189
:100C60000895EE0FFF1F0590F491E02D099481E0A7
:0C0C700090E0F8940C943C06F894FFCF40
:100C7C000000000014017D00AB006101DC00BA0033
:100C8C00CE00202020616E616C616F6720696E70F0
:100C9C007574202000202020616320766F6C7461B5
:100CAC0067652020006E616E00696E66006F766667
:040CBC00000D0A001D
:00000001FF
